{
  "contractName": "MPOStorage",
  "abi": [
    {
      "constant": true,
      "inputs": [],
      "name": "owner",
      "outputs": [
        {
          "name": "",
          "type": "address"
        }
      ],
      "payable": false,
      "stateMutability": "view",
      "type": "function"
    },
    {
      "constant": false,
      "inputs": [
        {
          "name": "newOwner",
          "type": "address"
        }
      ],
      "name": "transferOwnership",
      "outputs": [],
      "payable": false,
      "stateMutability": "nonpayable",
      "type": "function"
    },
    {
      "anonymous": false,
      "inputs": [
        {
          "indexed": true,
          "name": "previousOwner",
          "type": "address"
        },
        {
          "indexed": true,
          "name": "newOwner",
          "type": "address"
        }
      ],
      "name": "OwnershipTransferred",
      "type": "event"
    },
    {
      "constant": false,
      "inputs": [
        {
          "name": "queryId",
          "type": "uint256"
        },
        {
          "name": "_threshold",
          "type": "uint256"
        }
      ],
      "name": "setThreshold",
      "outputs": [],
      "payable": false,
      "stateMutability": "nonpayable",
      "type": "function"
    },
    {
      "constant": false,
      "inputs": [
        {
          "name": "mpoId",
          "type": "uint256"
        },
        {
          "name": "_clientQueryId",
          "type": "uint256"
        }
      ],
      "name": "setClientQueryId",
      "outputs": [],
      "payable": false,
      "stateMutability": "nonpayable",
      "type": "function"
    },
    {
      "constant": false,
      "inputs": [
        {
          "name": "parties",
          "type": "address[]"
        }
      ],
      "name": "setResponders",
      "outputs": [],
      "payable": false,
      "stateMutability": "nonpayable",
      "type": "function"
    },
    {
      "constant": false,
      "inputs": [
        {
          "name": "queryId",
          "type": "uint256"
        },
        {
          "name": "sender",
          "type": "address"
        }
      ],
      "name": "reachedThreshold",
      "outputs": [],
      "payable": false,
      "stateMutability": "nonpayable",
      "type": "function"
    },
    {
      "constant": false,
      "inputs": [
        {
          "name": "queryId",
          "type": "uint256"
        },
        {
          "name": "status",
          "type": "uint256"
        }
      ],
      "name": "setQueryStatus",
      "outputs": [],
      "payable": false,
      "stateMutability": "nonpayable",
      "type": "function"
    },
    {
      "constant": false,
      "inputs": [
        {
          "name": "queryId",
          "type": "uint256"
        },
        {
          "name": "response",
          "type": "uint256"
        }
      ],
      "name": "tallyResponse",
      "outputs": [],
      "payable": false,
      "stateMutability": "nonpayable",
      "type": "function"
    },
    {
      "constant": false,
      "inputs": [
        {
          "name": "queryId",
          "type": "uint256"
        },
        {
          "name": "responder",
          "type": "address"
        }
      ],
      "name": "tallyAddress",
      "outputs": [],
      "payable": false,
      "stateMutability": "nonpayable",
      "type": "function"
    },
    {
      "constant": false,
      "inputs": [
        {
          "name": "queryId",
          "type": "uint256"
        },
        {
          "name": "response",
          "type": "uint256"
        },
        {
          "name": "party",
          "type": "address"
        }
      ],
      "name": "addResponse",
      "outputs": [],
      "payable": false,
      "stateMutability": "nonpayable",
      "type": "function"
    },
    {
      "constant": false,
      "inputs": [
        {
          "name": "queryId",
          "type": "uint256"
        },
        {
          "name": "response",
          "type": "uint256"
        }
      ],
      "name": "addThresholdResponse",
      "outputs": [],
      "payable": false,
      "stateMutability": "nonpayable",
      "type": "function"
    },
    {
      "constant": false,
      "inputs": [
        {
          "name": "queryId",
          "type": "uint256"
        },
        {
          "name": "_delta",
          "type": "uint256"
        }
      ],
      "name": "setDelta",
      "outputs": [],
      "payable": false,
      "stateMutability": "nonpayable",
      "type": "function"
    },
    {
      "constant": false,
      "inputs": [
        {
          "name": "queryId",
          "type": "uint256"
        },
        {
          "name": "_precision",
          "type": "uint256"
        }
      ],
      "name": "setPrecision",
      "outputs": [],
      "payable": false,
      "stateMutability": "nonpayable",
      "type": "function"
    },
    {
      "constant": true,
      "inputs": [
        {
          "name": "queryId",
          "type": "uint256"
        },
        {
          "name": "party",
          "type": "address"
        }
      ],
      "name": "onlyOneResponse",
      "outputs": [
        {
          "name": "",
          "type": "bool"
        }
      ],
      "payable": false,
      "stateMutability": "view",
      "type": "function"
    },
    {
      "constant": true,
      "inputs": [
        {
          "name": "queryId",
          "type": "uint256"
        },
        {
          "name": "party",
          "type": "address"
        }
      ],
      "name": "getThresholdStatus",
      "outputs": [
        {
          "name": "",
          "type": "bool"
        }
      ],
      "payable": false,
      "stateMutability": "view",
      "type": "function"
    },
    {
      "constant": true,
      "inputs": [
        {
          "name": "party",
          "type": "address"
        }
      ],
      "name": "getAddressStatus",
      "outputs": [
        {
          "name": "",
          "type": "bool"
        }
      ],
      "payable": false,
      "stateMutability": "view",
      "type": "function"
    },
    {
      "constant": true,
      "inputs": [
        {
          "name": "queryId",
          "type": "uint256"
        }
      ],
      "name": "getThreshold",
      "outputs": [
        {
          "name": "",
          "type": "uint256"
        }
      ],
      "payable": false,
      "stateMutability": "view",
      "type": "function"
    },
    {
      "constant": true,
      "inputs": [
        {
          "name": "queryId",
          "type": "uint256"
        },
        {
          "name": "response",
          "type": "uint256"
        }
      ],
      "name": "getTally",
      "outputs": [
        {
          "name": "",
          "type": "uint256"
        }
      ],
      "payable": false,
      "stateMutability": "view",
      "type": "function"
    },
    {
      "constant": true,
      "inputs": [
        {
          "name": "queryId",
          "type": "uint256"
        },
        {
          "name": "responder",
          "type": "address"
        }
      ],
      "name": "getAddressTally",
      "outputs": [
        {
          "name": "",
          "type": "uint256"
        }
      ],
      "payable": false,
      "stateMutability": "view",
      "type": "function"
    },
    {
      "constant": true,
      "inputs": [
        {
          "name": "queryId",
          "type": "uint256"
        },
        {
          "name": "responder",
          "type": "address"
        }
      ],
      "name": "getAddressResponse",
      "outputs": [
        {
          "name": "",
          "type": "uint256"
        }
      ],
      "payable": false,
      "stateMutability": "view",
      "type": "function"
    },
    {
      "constant": true,
      "inputs": [
        {
          "name": "mpoId",
          "type": "uint256"
        }
      ],
      "name": "getClientQueryId",
      "outputs": [
        {
          "name": "",
          "type": "uint256"
        }
      ],
      "payable": false,
      "stateMutability": "view",
      "type": "function"
    },
    {
      "constant": true,
      "inputs": [
        {
          "name": "queryId",
          "type": "uint256"
        }
      ],
      "name": "getQueryStatus",
      "outputs": [
        {
          "name": "",
          "type": "uint256"
        }
      ],
      "payable": false,
      "stateMutability": "view",
      "type": "function"
    },
    {
      "constant": true,
      "inputs": [
        {
          "name": "queryId",
          "type": "uint256"
        }
      ],
      "name": "getThresholdResponses",
      "outputs": [
        {
          "name": "",
          "type": "uint256[]"
        }
      ],
      "payable": false,
      "stateMutability": "view",
      "type": "function"
    },
    {
      "constant": true,
      "inputs": [],
      "name": "getNumResponders",
      "outputs": [
        {
          "name": "",
          "type": "uint256"
        }
      ],
      "payable": false,
      "stateMutability": "view",
      "type": "function"
    },
    {
      "constant": true,
      "inputs": [
        {
          "name": "index",
          "type": "uint256"
        }
      ],
      "name": "getResponderAddress",
      "outputs": [
        {
          "name": "",
          "type": "address"
        }
      ],
      "payable": false,
      "stateMutability": "view",
      "type": "function"
    },
    {
      "constant": true,
      "inputs": [],
      "name": "getResponders",
      "outputs": [
        {
          "name": "",
          "type": "address[]"
        }
      ],
      "payable": false,
      "stateMutability": "view",
      "type": "function"
    },
    {
      "constant": true,
      "inputs": [
        {
          "name": "queryId",
          "type": "uint256"
        }
      ],
      "name": "getResponses",
      "outputs": [
        {
          "name": "",
          "type": "uint256[]"
        }
      ],
      "payable": false,
      "stateMutability": "view",
      "type": "function"
    },
    {
      "constant": true,
      "inputs": [
        {
          "name": "queryId",
          "type": "uint256"
        }
      ],
      "name": "getDelta",
      "outputs": [
        {
          "name": "",
          "type": "uint256"
        }
      ],
      "payable": false,
      "stateMutability": "view",
      "type": "function"
    },
    {
      "constant": true,
      "inputs": [
        {
          "name": "queryId",
          "type": "uint256"
        }
      ],
      "name": "getPrecision",
      "outputs": [
        {
          "name": "",
          "type": "uint256"
        }
      ],
      "payable": false,
      "stateMutability": "view",
      "type": "function"
    },
    {
      "constant": true,
      "inputs": [
        {
          "name": "queryId",
          "type": "uint256"
        }
      ],
      "name": "getQueryThreshold",
      "outputs": [
        {
          "name": "",
          "type": "bool"
        }
      ],
      "payable": false,
      "stateMutability": "view",
      "type": "function"
    },
    {
      "constant": true,
      "inputs": [
        {
          "name": "queryId",
          "type": "uint256"
        }
      ],
      "name": "getAverage",
      "outputs": [
        {
          "name": "",
          "type": "int256[]"
        }
      ],
      "payable": false,
      "stateMutability": "view",
      "type": "function"
    }
  ],
  "bytecode": "0x60806040526005601155336000806101000a81548173ffffffffffffffffffffffffffffffffffffffff021916908373ffffffffffffffffffffffffffffffffffffffff160217905550611c6c806100586000396000f30060806040526004361061018b576000357c0100000000000000000000000000000000000000000000000000000000900463ffffffff168063090d42591461019057806312faae93146101dd5780631518ec56146102495780633b7bff7f146102aa5780634155b850146102ef5780634615d5e91461035c5780634c0f80731461039d5780634c573828146103ea57806350d48de01461042b57806356322586146104905780635ba4edb6146104d1578063602bb04f14610508578063664c0bf9146105335780636cc9354f1461056e5780636f07abcc146105af57806371ee2ce1146105f0578063732d161c146106725780637d210c31146106f457806381f668441461072b57806387e02828146107625780638be8f272146107c35780638da5cb5b146107fa578063b9c3620914610851578063bdbc015314610888578063cdae1fba1461090a578063e226a1b614610955578063e362d9ef146109b0578063e600505f14610a07578063f2fde38b14610a3e578063f43fd6f014610a81578063fe151a9614610ab8575b600080fd5b34801561019c57600080fd5b506101db60048036038101908080359060200190929190803573ffffffffffffffffffffffffffffffffffffffff169060200190929190505050610b1d565b005b3480156101e957600080fd5b506101f2610bdc565b6040518080602001828103825283818151815260200191508051906020019060200280838360005b8381101561023557808201518184015260208101905061021a565b505050509050019250505060405180910390f35b34801561025557600080fd5b5061029460048036038101908080359060200190929190803573ffffffffffffffffffffffffffffffffffffffff169060200190929190505050610c6a565b6040518082815260200191505060405180910390f35b3480156102b657600080fd5b506102d560048036038101908080359060200190929190505050610cc5565b604051808215151515815260200191505060405180910390f35b3480156102fb57600080fd5b5061031a60048036038101908080359060200190929190505050610cef565b604051808273ffffffffffffffffffffffffffffffffffffffff1673ffffffffffffffffffffffffffffffffffffffff16815260200191505060405180910390f35b34801561036857600080fd5b5061038760048036038101908080359060200190929190505050610d32565b6040518082815260200191505060405180910390f35b3480156103a957600080fd5b506103e860048036038101908080359060200190929190803573ffffffffffffffffffffffffffffffffffffffff169060200190929190505050610d4f565b005b3480156103f657600080fd5b5061041560048036038101908080359060200190929190505050610e43565b6040518082815260200191505060405180910390f35b34801561043757600080fd5b5061047660048036038101908080359060200190929190803573ffffffffffffffffffffffffffffffffffffffff169060200190929190505050610e60565b604051808215151515815260200191505060405180910390f35b34801561049c57600080fd5b506104bb60048036038101908080359060200190929190505050610ec8565b6040518082815260200191505060405180910390f35b3480156104dd57600080fd5b506105066004803603810190808035906020019092919080359060200190929190505050610ee5565b005b34801561051457600080fd5b5061051d610f01565b6040518082815260200191505060405180910390f35b34801561053f57600080fd5b5061056c600480360381019080803590602001908201803590602001919091929391929390505050610f0b565b005b34801561057a57600080fd5b5061059960048036038101908080359060200190929190505050611043565b6040518082815260200191505060405180910390f35b3480156105bb57600080fd5b506105da60048036038101908080359060200190929190505050611060565b6040518082815260200191505060405180910390f35b3480156105fc57600080fd5b5061061b6004803603810190808035906020019092919050505061107d565b6040518080602001828103825283818151815260200191508051906020019060200280838360005b8381101561065e578082015181840152602081019050610643565b505050509050019250505060405180910390f35b34801561067e57600080fd5b5061069d600480360381019080803590602001909291905050506110e8565b6040518080602001828103825283818151815260200191508051906020019060200280838360005b838110156106e05780820151818401526020810190506106c5565b505050509050019250505060405180910390f35b34801561070057600080fd5b5061072960048036038101908080359060200190929190803590602001909291905050506113c5565b005b34801561073757600080fd5b506107606004803603810190808035906020019092919080359060200190929190505050611458565b005b34801561076e57600080fd5b506107ad60048036038101908080359060200190929190803573ffffffffffffffffffffffffffffffffffffffff1690602001909291905050506114cf565b6040518082815260200191505060405180910390f35b3480156107cf57600080fd5b506107f8600480360381019080803590602001909291908035906020019092919050505061152a565b005b34801561080657600080fd5b5061080f6115a1565b604051808273ffffffffffffffffffffffffffffffffffffffff1673ffffffffffffffffffffffffffffffffffffffff16815260200191505060405180910390f35b34801561085d57600080fd5b5061088660048036038101908080359060200190929190803590602001909291905050506115c6565b005b34801561089457600080fd5b506108b36004803603810190808035906020019092919050505061163d565b6040518080602001828103825283818151815260200191508051906020019060200280838360005b838110156108f65780820151818401526020810190506108db565b505050509050019250505060405180910390f35b34801561091657600080fd5b5061093f60048036038101908080359060200190929190803590602001909291905050506116a8565b6040518082815260200191505060405180910390f35b34801561096157600080fd5b50610996600480360381019080803573ffffffffffffffffffffffffffffffffffffffff1690602001909291905050506116d7565b604051808215151515815260200191505060405180910390f35b3480156109bc57600080fd5b50610a056004803603810190808035906020019092919080359060200190929190803573ffffffffffffffffffffffffffffffffffffffff16906020019092919050505061172d565b005b348015610a1357600080fd5b50610a3c60048036038101908080359060200190929190803590602001909291905050506118e8565b005b348015610a4a57600080fd5b50610a7f600480360381019080803573ffffffffffffffffffffffffffffffffffffffff169060200190929190505050611904565b005b348015610a8d57600080fd5b50610ab66004803603810190808035906020019092919080359060200190929190505050611a59565b005b348015610ac457600080fd5b50610b0360048036038101908080359060200190929190803573ffffffffffffffffffffffffffffffffffffffff169060200190929190505050611af5565b604051808215151515815260200191505060405180910390f35b6000809054906101000a900473ffffffffffffffffffffffffffffffffffffffff1673ffffffffffffffffffffffffffffffffffffffff163373ffffffffffffffffffffffffffffffffffffffff16141515610b7857600080fd5b6007600083815260200190815260200160002060008273ffffffffffffffffffffffffffffffffffffffff1673ffffffffffffffffffffffffffffffffffffffff168152602001908152602001600020600081548092919060010191905055505050565b60606010805480602002602001604051908101604052809291908181526020018280548015610c6057602002820191906000526020600020905b8160009054906101000a900473ffffffffffffffffffffffffffffffffffffffff1673ffffffffffffffffffffffffffffffffffffffff1681526020019060010190808311610c16575b5050505050905090565b60006007600084815260200190815260200160002060008373ffffffffffffffffffffffffffffffffffffffff1673ffffffffffffffffffffffffffffffffffffffff16815260200190815260200160002054905092915050565b60006003600083815260200190815260200160002060009054906101000a900460ff169050919050565b6000601082815481101515610d0057fe5b9060005260206000200160009054906101000a900473ffffffffffffffffffffffffffffffffffffffff169050919050565b6000600f6000838152602001908152602001600020549050919050565b6000809054906101000a900473ffffffffffffffffffffffffffffffffffffffff1673ffffffffffffffffffffffffffffffffffffffff163373ffffffffffffffffffffffffffffffffffffffff16141515610daa57600080fd5b60016002600084815260200190815260200160002060008373ffffffffffffffffffffffffffffffffffffffff1673ffffffffffffffffffffffffffffffffffffffff16815260200190815260200160002060006101000a81548160ff02191690831515021790555060016003600084815260200190815260200160002060006101000a81548160ff0219169083151502179055505050565b6000600d6000838152602001908152602001600020549050919050565b60006002600084815260200190815260200160002060008373ffffffffffffffffffffffffffffffffffffffff1673ffffffffffffffffffffffffffffffffffffffff16815260200190815260200160002060009054906101000a900460ff16905092915050565b6000600e6000838152602001908152602001600020549050919050565b80600e6000848152602001908152602001600020819055505050565b6000601154905090565b60008060009054906101000a900473ffffffffffffffffffffffffffffffffffffffff1673ffffffffffffffffffffffffffffffffffffffff163373ffffffffffffffffffffffffffffffffffffffff16141515610f6857600080fd5b828260109190610f79929190611b5d565b50828290506011541115610f9257828290506011819055505b600090505b60115481101561103e576001806000601084815481101515610fb557fe5b9060005260206000200160009054906101000a900473ffffffffffffffffffffffffffffffffffffffff1673ffffffffffffffffffffffffffffffffffffffff1673ffffffffffffffffffffffffffffffffffffffff16815260200190815260200160002060006101000a81548160ff0219169083151502179055508080600101915050610f97565b505050565b6000600c6000838152602001908152602001600020549050919050565b600060046000838152602001908152602001600020549050919050565b6060600860008381526020019081526020016000208054806020026020016040519081016040528092919081815260200182805480156110dc57602002820191906000526020600020905b8154815260200190600101908083116110c8575b50505050509050919050565b60606000806000606060006010805490501415151561116f576040517f08c379a000000000000000000000000000000000000000000000000000000000815260040180806020018281038252600e8152602001807f4469766973696f6e206572726f7200000000000000000000000000000000000081525060200191505060405180910390fd5b6000935060009250600091505b6011548210156112c6576002600087815260200190815260200160002060006010848154811015156111aa57fe5b9060005260206000200160009054906101000a900473ffffffffffffffffffffffffffffffffffffffff1673ffffffffffffffffffffffffffffffffffffffff1673ffffffffffffffffffffffffffffffffffffffff16815260200190815260200160002060009054906101000a900460ff16156112b957828060010193505060066000878152602001908152602001600020600060108481548110151561124e57fe5b9060005260206000200160009054906101000a900473ffffffffffffffffffffffffffffffffffffffff1673ffffffffffffffffffffffffffffffffffffffff1673ffffffffffffffffffffffffffffffffffffffff16815260200190815260200160002054840193505b818060010192505061117c565b7fffffffffffffffffffffffffffffffffffffffffffffffffffffffffffffffff8410151561135d576040517f08c379a000000000000000000000000000000000000000000000000000000000815260040180806020018281038252601a8152602001807f4f766572666c6f77206572726f7228676574417665726167652900000000000081525060200191505060405180910390fd5b600160405190808252806020026020018201604052801561138d5781602001602082028038833980820191505090505b509050828481151561139b57fe5b058160008151811015156113ab57fe5b906020019060200201818152505080945050505050919050565b6000809054906101000a900473ffffffffffffffffffffffffffffffffffffffff1673ffffffffffffffffffffffffffffffffffffffff163373ffffffffffffffffffffffffffffffffffffffff1614151561142057600080fd5b600560008381526020019081526020016000206000828152602001908152602001600020600081548092919060010191905055505050565b6000809054906101000a900473ffffffffffffffffffffffffffffffffffffffff1673ffffffffffffffffffffffffffffffffffffffff163373ffffffffffffffffffffffffffffffffffffffff161415156114b357600080fd5b8060046000848152602001908152602001600020819055505050565b60006006600084815260200190815260200160002060008373ffffffffffffffffffffffffffffffffffffffff1673ffffffffffffffffffffffffffffffffffffffff16815260200190815260200160002054905092915050565b6000809054906101000a900473ffffffffffffffffffffffffffffffffffffffff1673ffffffffffffffffffffffffffffffffffffffff163373ffffffffffffffffffffffffffffffffffffffff1614151561158557600080fd5b80600c6000848152602001908152602001600020819055505050565b6000809054906101000a900473ffffffffffffffffffffffffffffffffffffffff1681565b6000809054906101000a900473ffffffffffffffffffffffffffffffffffffffff1673ffffffffffffffffffffffffffffffffffffffff163373ffffffffffffffffffffffffffffffffffffffff1614151561162157600080fd5b80600f6000848152602001908152602001600020819055505050565b60606009600083815260200190815260200160002080548060200260200160405190810160405280929190818152602001828054801561169c57602002820191906000526020600020905b815481526020019060010190808311611688575b50505050509050919050565b600060056000848152602001908152602001600020600083815260200190815260200160002054905092915050565b6000600160008373ffffffffffffffffffffffffffffffffffffffff1673ffffffffffffffffffffffffffffffffffffffff16815260200190815260200160002060009054906101000a900460ff169050919050565b6000809054906101000a900473ffffffffffffffffffffffffffffffffffffffff1673ffffffffffffffffffffffffffffffffffffffff163373ffffffffffffffffffffffffffffffffffffffff1614151561178857600080fd5b600860008481526020019081526020016000208290806001815401808255809150509060018203906000526020600020016000909192909190915055506007600084815260200190815260200160002060008273ffffffffffffffffffffffffffffffffffffffff1673ffffffffffffffffffffffffffffffffffffffff16815260200190815260200160002060008154809291906001019190505550816006600085815260200190815260200160002060008373ffffffffffffffffffffffffffffffffffffffff1673ffffffffffffffffffffffffffffffffffffffff168152602001908152602001600020819055506001600b600085815260200190815260200160002060008373ffffffffffffffffffffffffffffffffffffffff1673ffffffffffffffffffffffffffffffffffffffff16815260200190815260200160002060006101000a81548160ff021916908315150217905550505050565b80600d6000848152602001908152602001600020819055505050565b6000809054906101000a900473ffffffffffffffffffffffffffffffffffffffff1673ffffffffffffffffffffffffffffffffffffffff163373ffffffffffffffffffffffffffffffffffffffff1614151561195f57600080fd5b600073ffffffffffffffffffffffffffffffffffffffff168173ffffffffffffffffffffffffffffffffffffffff161415151561199b57600080fd5b8073ffffffffffffffffffffffffffffffffffffffff166000809054906101000a900473ffffffffffffffffffffffffffffffffffffffff1673ffffffffffffffffffffffffffffffffffffffff167f8be0079c531659141344cd1fd0a4f28419497f9722a3daafe3b4186f6b6457e060405160405180910390a3806000806101000a81548173ffffffffffffffffffffffffffffffffffffffff021916908373ffffffffffffffffffffffffffffffffffffffff16021790555050565b6000809054906101000a900473ffffffffffffffffffffffffffffffffffffffff1673ffffffffffffffffffffffffffffffffffffffff163373ffffffffffffffffffffffffffffffffffffffff16141515611ab457600080fd5b600960008381526020019081526020016000208190806001815401808255809150509060018203906000526020600020016000909192909190915055505050565b6000600b600084815260200190815260200160002060008373ffffffffffffffffffffffffffffffffffffffff1673ffffffffffffffffffffffffffffffffffffffff16815260200190815260200160002060009054906101000a900460ff16905092915050565b828054828255906000526020600020908101928215611bec579160200282015b82811115611beb57823573ffffffffffffffffffffffffffffffffffffffff168260006101000a81548173ffffffffffffffffffffffffffffffffffffffff021916908373ffffffffffffffffffffffffffffffffffffffff16021790555091602001919060010190611b7d565b5b509050611bf99190611bfd565b5090565b611c3d91905b80821115611c3957600081816101000a81549073ffffffffffffffffffffffffffffffffffffffff021916905550600101611c03565b5090565b905600a165627a7a723058201afe30c8c3b949294be85172cb18a2462a8d768f35aab6092a6a8e71f79315f40029",
  "source": "pragma solidity ^0.4.24;\n\nimport \"./lib/Ownable.sol\";\n\ncontract MPOStorage is Ownable{\n\n\n\t// check if msg.sender is in global approved list of responders\n\tmapping(address => bool) approvedAddress; \n\tmapping(uint256 => mapping(address => bool) ) isThresholdReached; \n\tmapping(uint256 => bool ) thresholdReached; \n\t// Threshold reached, do not accept any more responses\n\tmapping(uint256 => uint256) queryStatus;\n\t// Tally of each response.\n\tmapping(uint256 => mapping(uint256 => uint256) ) responseTally; \n\tmapping(uint256 => mapping(address => uint256) ) addressResponse; \n\tmapping(uint256 => mapping(address => uint256) ) addressTally; \n\tmapping(uint256 => uint256[]) responseArr; \n\tmapping(uint256 => uint256[]) thresholdArr;\n\tmapping(uint256 => uint256) average;\n\t// Make sure each party can only submit one response\n\tmapping(uint256 => mapping(address => bool)) oneAddressResponse; \n\tmapping(uint256 => uint256) mpoToClientId;\n\t\n\tmapping(uint256 => uint256) precision; \n\tmapping(uint256 => uint256) delta; \n\n\tmapping(uint256 => uint256) threshold;\n\taddress[] responders;\n\tuint256 responderLength = 5;\n\t// implements Client1\n\taddress client;\n\tuint256 clientQueryId; \n\n\n\t// Set Methods / Mutators\n\tfunction setThreshold(uint queryId, uint256 _threshold) external onlyOwner {\n\t\tthreshold[queryId] = _threshold;\n\t}\n\n\tfunction setClientQueryId(uint256 mpoId, uint256 _clientQueryId) external onlyOwner {\n\t\tmpoToClientId[mpoId] = _clientQueryId;\n\t}\n \n\tfunction setResponders(address[] parties) external  onlyOwner{\n\t\tresponders=parties;\n\t\tif(responderLength>parties.length){\n\t\t\tresponderLength = parties.length;\n\t\t}\n\t\tfor(uint256 i=0; i <responderLength; i++){\n\t\t\tapprovedAddress[responders[i]]=true;\n\t\t}\n\t}\n\tfunction reachedThreshold(uint256 queryId, address sender) external  onlyOwner{\n\t\tisThresholdReached[queryId][sender] = true;\n\t\tthresholdReached[queryId] = true;\n\t}\n\tfunction setQueryStatus(uint queryId, uint256 status) external onlyOwner {\n\t\tqueryStatus[queryId]=status;\n\t}\n\n\tfunction tallyResponse(uint256 queryId, uint response) external onlyOwner {\n\t\tresponseTally[queryId][response]++;\n\n\t}\n\tfunction tallyAddress(uint256 queryId, address responder) external onlyOwner {\n\t\taddressTally[queryId][responder]++;\n\n\t}\n\tfunction addResponse(uint256 queryId, uint256 response, address party) external onlyOwner {\n\t\tresponseArr[queryId].push(response);\n\t\taddressTally[queryId][party]++;\n\t\taddressResponse[queryId][party] = response;\n\t\toneAddressResponse[queryId][party] = true;\n\t}\n\tfunction addThresholdResponse(uint256 queryId, uint256 response) external onlyOwner {\n\t\tthresholdArr[queryId].push(response);\n\t}\n\tfunction setDelta(uint256 queryId, uint256 _delta) external{\n\t\tdelta[queryId] = _delta;\n\t}\n\n\tfunction setPrecision(uint256 queryId, uint256 _precision) external{\n\t\tprecision[queryId] = _precision;\n\t}\n\t// Get Methods / Accessors\n\n\tfunction onlyOneResponse(uint256 queryId, address party) external view returns(bool) {\n        return oneAddressResponse[queryId][party];\n    }\n    function getThresholdStatus(uint256 queryId, address party) external view returns(bool) {\n        return isThresholdReached[queryId][party];\n    }\n\n    function getAddressStatus(address party) external view returns(bool){\n        return approvedAddress[party];\n    }\n\t\n\tfunction getThreshold(uint queryId) external view returns(uint) { \n\t\treturn threshold[queryId];\n\t}\n\t\n\tfunction getTally(uint256 queryId, uint256 response)external view returns(uint256){\n\t\treturn responseTally[queryId][response];\n\t}\n\tfunction getAddressTally(uint256 queryId, address responder)external view returns(uint256){\n\t\treturn addressTally[queryId][responder];\n\t}\n\tfunction getAddressResponse(uint256 queryId, address responder)external view returns(uint256){\n\t\treturn addressResponse[queryId][responder];\n\t}\n\t\n\tfunction getClientQueryId(uint256 mpoId) external view returns(uint256){\n\t\treturn mpoToClientId[mpoId];\n\t}\n\n\tfunction getQueryStatus(uint256 queryId) external view returns(uint256){\n\t\treturn queryStatus[queryId];\n\t}\n\tfunction getThresholdResponses(uint256 queryId) external view returns(uint256[]){\n\t\treturn thresholdArr[queryId];\n\t}\n\n\tfunction getNumResponders() external view returns (uint) {\n\t\treturn responderLength;\n\t}\n\n\tfunction getResponderAddress(uint index) external view returns(address){\n\t\treturn responders[index];\n\t}\n\tfunction getResponders() external view returns (address[]){\n\t\treturn responders;\n\t}\n\tfunction getResponses(uint256 queryId) external view returns(uint256[]){\n\t\treturn responseArr[queryId];\n\t}\n\tfunction getDelta(uint256 queryId) external view returns(uint256){\n\t\treturn delta[queryId];\n\t}\n\tfunction getPrecision(uint256 queryId) external view returns(uint256){\n\t\treturn precision[queryId];\n\t}\n\tfunction getQueryThreshold(uint queryId)external view returns(bool){\n\t\treturn thresholdReached[queryId];\n\t}\n\tfunction getAverage(uint256 queryId) external view returns(int[]){\n\t\trequire(responders.length!=0, \"Division error\");\n\t\tuint total = 0;\n\t\tuint len=0;\n\t\t\n\t\tfor (uint i =0; i < responderLength ;i++){\n\t\t\tif(isThresholdReached[queryId][responders[i]] ){\n\t\t\t\tlen++;\n\t\t\t\ttotal+=addressResponse[queryId][responders[i]];\n\t\t\t\t\n\t\t\t}\n\t\t}\n\t\trequire(total<uint(2**256-1), \"Overflow error(getAverage)\");\n\t\tint[] memory avg = new int[](1);\n\t\tavg[0]=int(total) / int(len);\n\t\treturn avg;\n\t}\n\t\n\n}\n",
  "sourcePath": "/home/user/multiparty-oracle/contracts/MPOStorage.sol",
  "compiler": {
    "name": "solc",
    "version": "0.4.24+commit.e67f0147.Emscripten.clang"
  },
  "schemaVersion": "3.0.9",
  "updatedAt": "2019-05-20T11:25:45.216Z",
  "devdoc": {
    "methods": {
      "transferOwnership(address)": {
        "details": "Allows the current owner to transfer control of the contract to a newOwner.",
        "params": {
          "newOwner": "The address to transfer ownership to."
        }
      }
    }
  },
  "userdoc": {
    "methods": {}
  }
}