{
  "contractName": "MultiPartyOracle",
  "abi": [
    {
      "constant": true,
      "inputs": [],
      "name": "spec3",
      "outputs": [
        {
          "name": "",
          "type": "bytes32"
        }
      ],
      "payable": false,
      "stateMutability": "view",
      "type": "function"
    },
    {
      "constant": true,
      "inputs": [],
      "name": "storageAddress",
      "outputs": [
        {
          "name": "",
          "type": "address"
        }
      ],
      "payable": false,
      "stateMutability": "view",
      "type": "function"
    },
    {
      "inputs": [
        {
          "name": "_zapCoord",
          "type": "address"
        },
        {
          "name": "mpoStorageAddress",
          "type": "address"
        },
        {
          "name": "_aggregator",
          "type": "address"
        }
      ],
      "payable": false,
      "stateMutability": "nonpayable",
      "type": "constructor"
    },
    {
      "anonymous": false,
      "inputs": [
        {
          "indexed": false,
          "name": "query",
          "type": "string"
        },
        {
          "indexed": false,
          "name": "endpoint",
          "type": "bytes32"
        },
        {
          "indexed": false,
          "name": "params",
          "type": "bytes32[]"
        },
        {
          "indexed": false,
          "name": "sender",
          "type": "address"
        }
      ],
      "name": "RecievedQuery",
      "type": "event"
    },
    {
      "anonymous": false,
      "inputs": [
        {
          "indexed": false,
          "name": "queryId",
          "type": "uint256"
        },
        {
          "indexed": false,
          "name": "responder",
          "type": "address"
        },
        {
          "indexed": false,
          "name": "response",
          "type": "string"
        }
      ],
      "name": "ReceivedResponse",
      "type": "event"
    },
    {
      "anonymous": false,
      "inputs": [
        {
          "indexed": false,
          "name": "id",
          "type": "uint256"
        },
        {
          "indexed": false,
          "name": "provider",
          "type": "address"
        },
        {
          "indexed": false,
          "name": "subscriber",
          "type": "address"
        },
        {
          "indexed": false,
          "name": "query",
          "type": "string"
        },
        {
          "indexed": false,
          "name": "endpoint",
          "type": "bytes32"
        },
        {
          "indexed": false,
          "name": "endpointParams",
          "type": "bytes32[]"
        },
        {
          "indexed": false,
          "name": "onchainSubscriber",
          "type": "bool"
        }
      ],
      "name": "Incoming",
      "type": "event"
    },
    {
      "anonymous": false,
      "inputs": [
        {
          "indexed": false,
          "name": "id",
          "type": "uint256"
        },
        {
          "indexed": false,
          "name": "response1",
          "type": "string"
        }
      ],
      "name": "Result1",
      "type": "event"
    },
    {
      "constant": false,
      "inputs": [
        {
          "name": "_responders",
          "type": "address[]"
        }
      ],
      "name": "setup",
      "outputs": [],
      "payable": false,
      "stateMutability": "nonpayable",
      "type": "function"
    },
    {
      "constant": false,
      "inputs": [
        {
          "name": "id",
          "type": "uint256"
        },
        {
          "name": "userQuery",
          "type": "string"
        },
        {
          "name": "endpoint",
          "type": "bytes32"
        },
        {
          "name": "endpointParams",
          "type": "bytes32[]"
        },
        {
          "name": "onchainSubscriber",
          "type": "bool"
        }
      ],
      "name": "receive",
      "outputs": [],
      "payable": false,
      "stateMutability": "nonpayable",
      "type": "function"
    },
    {
      "constant": false,
      "inputs": [
        {
          "name": "mpoId",
          "type": "uint256"
        },
        {
          "name": "responses",
          "type": "uint256[]"
        },
        {
          "name": "msgHash",
          "type": "bytes32[]"
        },
        {
          "name": "sigv",
          "type": "uint8[]"
        },
        {
          "name": "sigrs",
          "type": "bytes32[]"
        }
      ],
      "name": "callback",
      "outputs": [],
      "payable": false,
      "stateMutability": "nonpayable",
      "type": "function"
    },
    {
      "constant": false,
      "inputs": [],
      "name": "payout",
      "outputs": [],
      "payable": false,
      "stateMutability": "nonpayable",
      "type": "function"
    }
  ],
  "bytecode": "0x60806040527f4e6f6e70726f7669646572730000000000000000000000000000000000000000600b90600019169055606060405190810160405280600163ffffffff168152602001600163ffffffff168152602001633b9aca0063ffffffff16815250600c90600362000074929190620009b7565b506000600d556000600e556000600f553480156200009157600080fd5b5060405160608062002dc183398101806040528101908080519060200190929190805190602001909291908051906020019092919050505060008373ffffffffffffffffffffffffffffffffffffffff1663358177736040518163ffffffff167c01000000000000000000000000000000000000000000000000000000000281526004018080602001828103825260088152602001807f5245474953545259000000000000000000000000000000000000000000000000815250602001915050602060405180830381600087803b1580156200016c57600080fd5b505af115801562000181573d6000803e3d6000fd5b505050506040513d60208110156200019857600080fd5b8101908080519060200190929190505050600760006101000a81548173ffffffffffffffffffffffffffffffffffffffff021916908373ffffffffffffffffffffffffffffffffffffffff160217905550600760009054906101000a900473ffffffffffffffffffffffffffffffffffffffff16600260006101000a81548173ffffffffffffffffffffffffffffffffffffffff021916908373ffffffffffffffffffffffffffffffffffffffff1602179055508373ffffffffffffffffffffffffffffffffffffffff1663358177736040518163ffffffff167c01000000000000000000000000000000000000000000000000000000000281526004018080602001828103825260088152602001807f4449535041544348000000000000000000000000000000000000000000000000815250602001915050602060405180830381600087803b158015620002ed57600080fd5b505af115801562000302573d6000803e3d6000fd5b505050506040513d60208110156200031957600080fd5b8101908080519060200190929190505050600560006101000a81548173ffffffffffffffffffffffffffffffffffffffff021916908373ffffffffffffffffffffffffffffffffffffffff160217905550600560009054906101000a900473ffffffffffffffffffffffffffffffffffffffff166000806101000a81548173ffffffffffffffffffffffffffffffffffffffff021916908373ffffffffffffffffffffffffffffffffffffffff1602179055508373ffffffffffffffffffffffffffffffffffffffff1663358177736040518163ffffffff167c01000000000000000000000000000000000000000000000000000000000281526004018080602001828103825260078152602001807f424f4e4441474500000000000000000000000000000000000000000000000000815250602001915050602060405180830381600087803b1580156200046d57600080fd5b505af115801562000482573d6000803e3d6000fd5b505050506040513d60208110156200049957600080fd5b8101908080519060200190929190505050600660006101000a81548173ffffffffffffffffffffffffffffffffffffffff021916908373ffffffffffffffffffffffffffffffffffffffff160217905550600660009054906101000a900473ffffffffffffffffffffffffffffffffffffffff16600160006101000a81548173ffffffffffffffffffffffffffffffffffffffff021916908373ffffffffffffffffffffffffffffffffffffffff1602179055508373ffffffffffffffffffffffffffffffffffffffff1663358177736040518163ffffffff167c01000000000000000000000000000000000000000000000000000000000281526004018080602001828103825260098152602001807f5a41505f544f4b454e0000000000000000000000000000000000000000000000815250602001915050602060405180830381600087803b158015620005ee57600080fd5b505af115801562000603573d6000803e3d6000fd5b505050506040513d60208110156200061a57600080fd5b8101908080519060200190929190505050600860006101000a81548173ffffffffffffffffffffffffffffffffffffffff021916908373ffffffffffffffffffffffffffffffffffffffff160217905550600860009054906101000a900473ffffffffffffffffffffffffffffffffffffffff16600360006101000a81548173ffffffffffffffffffffffffffffffffffffffff021916908373ffffffffffffffffffffffffffffffffffffffff16021790555082600460006101000a81548173ffffffffffffffffffffffffffffffffffffffff021916908373ffffffffffffffffffffffffffffffffffffffff16021790555081600a60006101000a81548173ffffffffffffffffffffffffffffffffffffffff021916908373ffffffffffffffffffffffffffffffffffffffff1602179055507f4d756c746950617274794f7261636c65000000000000000000000000000000009050600260009054906101000a900473ffffffffffffffffffffffffffffffffffffffff1673ffffffffffffffffffffffffffffffffffffffff1663af87c833613039836040518363ffffffff167c010000000000000000000000000000000000000000000000000000000002815260040180838152602001826000191660001916815260200192505050602060405180830381600087803b1580156200081757600080fd5b505af11580156200082c573d6000803e3d6000fd5b505050506040513d60208110156200084357600080fd5b810190808051906020019092919050505050600260009054906101000a900473ffffffffffffffffffffffffffffffffffffffff1673ffffffffffffffffffffffffffffffffffffffff1663238b3aed600b54600c60006040518463ffffffff167c0100000000000000000000000000000000000000000000000000000000028152600401808460001916600019168152602001806020018373ffffffffffffffffffffffffffffffffffffffff1673ffffffffffffffffffffffffffffffffffffffff16815260200182810382528481815481526020019150805480156200094c57602002820191906000526020600020905b81548152602001906001019080831162000937575b5050945050505050602060405180830381600087803b1580156200096f57600080fd5b505af115801562000984573d6000803e3d6000fd5b505050506040513d60208110156200099b57600080fd5b8101908080519060200190929190505050505050505062000a39565b828054828255906000526020600020908101928215620009fe579160200282015b82811115620009fd578251829063ffffffff16905591602001919060010190620009d8565b5b50905062000a0d919062000a11565b5090565b62000a3691905b8082111562000a3257600081600090555060010162000a18565b5090565b90565b6123788062000a496000396000f300608060405260043610610078576000357c0100000000000000000000000000000000000000000000000000000000900463ffffffff1680632ac9f6a31461007d57806363bd1d4a1461010a5780637ff94b621461012157806385aa92a714610154578063bd5b853b146101ab578063de26158314610211575b600080fd5b34801561008957600080fd5b5061010860048036038101908080359060200190929190803590602001908201803590602001919091929391929390803590602001908201803590602001919091929391929390803590602001908201803590602001919091929391929390803590602001908201803590602001919091929391929390505050610288565b005b34801561011657600080fd5b5061011f610c13565b005b34801561012d57600080fd5b506101366116b5565b60405180826000191660001916815260200191505060405180910390f35b34801561016057600080fd5b506101696116bb565b604051808273ffffffffffffffffffffffffffffffffffffffff1673ffffffffffffffffffffffffffffffffffffffff16815260200191505060405180910390f35b3480156101b757600080fd5b5061020f600480360381019080803590602001908201803590602001908080602002602001604051908101604052809392919081815260200183836020028082843782019150505050505091929192905050506116e1565b005b34801561021d57600080fd5b506102866004803603810190808035906020019092919080359060200190820180359060200191909192939192939080356000191690602001909291908035906020019082018035906020019190919293919293908035151590602001909291905050506117ce565b005b60008060006060600a60009054906101000a900473ffffffffffffffffffffffffffffffffffffffff1673ffffffffffffffffffffffffffffffffffffffff163373ffffffffffffffffffffffffffffffffffffffff16141515610354576040517f08c379a00000000000000000000000000000000000000000000000000000000081526004018080602001828103825260128152602001807f496e76616c69642061676772656761746f72000000000000000000000000000081525060200191505060405180910390fd5b600460009054906101000a900473ffffffffffffffffffffffffffffffffffffffff1673ffffffffffffffffffffffffffffffffffffffff16636cc9354f8e6040518263ffffffff167c010000000000000000000000000000000000000000000000000000000002815260040180828152602001915050602060405180830381600087803b1580156103e557600080fd5b505af11580156103f9573d6000803e3d6000fd5b505050506040513d602081101561040f57600080fd5b81019080805190602001909291905050509350600091505b898990508210156106705760018a8a84818110151561044257fe5b9050602002013560001916898985818110151561045b57fe5b9050602002013560ff16888886600202818110151561047657fe5b9050602002013560001916898960018860020201818110151561049557fe5b9050602002013560001916604051600081526020016040526040518085600019166000191681526020018460ff1660ff1681526020018360001916600019168152602001826000191660001916815260200194505050505060206040516020810390808403906000865af1158015610511573d6000803e3d6000fd5b505050602060405103519250600460009054906101000a900473ffffffffffffffffffffffffffffffffffffffff1673ffffffffffffffffffffffffffffffffffffffff1663e226a1b6846040518263ffffffff167c0100000000000000000000000000000000000000000000000000000000028152600401808273ffffffffffffffffffffffffffffffffffffffff1673ffffffffffffffffffffffffffffffffffffffff168152602001915050602060405180830381600087803b1580156105da57600080fd5b505af11580156105ee573d6000803e3d6000fd5b505050506040513d602081101561060457600080fd5b8101908080519060200190929190505050156106635760008c8c84818110151561062a57fe5b9050602002013514151561064f57600d60008154809291906001019190505550610662565b600e600081548092919060010191905055505b5b8180600101925050610427565b6001600460009054906101000a900473ffffffffffffffffffffffffffffffffffffffff1673ffffffffffffffffffffffffffffffffffffffff16636f07abcc866040518263ffffffff167c010000000000000000000000000000000000000000000000000000000002815260040180828152602001915050602060405180830381600087803b15801561070357600080fd5b505af1158015610717573d6000803e3d6000fd5b505050506040513d602081101561072d57600080fd5b81019080805190602001909291905050501415610c035760016040519080825280602002602001820160405280156107745781602001602082028038833980820191505090505b509050600e54600d541180156108575750600460009054906101000a900473ffffffffffffffffffffffffffffffffffffffff1673ffffffffffffffffffffffffffffffffffffffff16634615d5e9856040518263ffffffff167c010000000000000000000000000000000000000000000000000000000002815260040180828152602001915050602060405180830381600087803b15801561081657600080fd5b505af115801561082a573d6000803e3d6000fd5b505050506040513d602081101561084057600080fd5b8101908080519060200190929190505050600d5410155b1561093257600460009054906101000a900473ffffffffffffffffffffffffffffffffffffffff1673ffffffffffffffffffffffffffffffffffffffff166381f668448560026040518363ffffffff167c01000000000000000000000000000000000000000000000000000000000281526004018083815260200182815260200192505050600060405180830381600087803b1580156108f657600080fd5b505af115801561090a573d6000803e3d6000fd5b50505050600181600081518110151561091f57fe5b9060200190602002018181525050610c04565b600d54600e54118015610a125750600460009054906101000a900473ffffffffffffffffffffffffffffffffffffffff1673ffffffffffffffffffffffffffffffffffffffff16634615d5e9856040518263ffffffff167c010000000000000000000000000000000000000000000000000000000002815260040180828152602001915050602060405180830381600087803b1580156109d157600080fd5b505af11580156109e5573d6000803e3d6000fd5b505050506040513d60208110156109fb57600080fd5b8101908080519060200190929190505050600e5410155b15610c0257600460009054906101000a900473ffffffffffffffffffffffffffffffffffffffff1673ffffffffffffffffffffffffffffffffffffffff166381f668448560026040518363ffffffff167c01000000000000000000000000000000000000000000000000000000000281526004018083815260200182815260200192505050600060405180830381600087803b158015610ab157600080fd5b505af1158015610ac5573d6000803e3d6000fd5b505050506000816000815181101515610ada57fe5b90602001906020020181815250506000809054906101000a900473ffffffffffffffffffffffffffffffffffffffff1673ffffffffffffffffffffffffffffffffffffffff1663ef05ab0b85836040518363ffffffff167c01000000000000000000000000000000000000000000000000000000000281526004018083815260200180602001828103825283818151815260200191508051906020019060200280838360005b83811015610b9b578082015181840152602081019050610b80565b505050509050019350505050602060405180830381600087803b158015610bc157600080fd5b505af1158015610bd5573d6000803e3d6000fd5b505050506040513d6020811015610beb57600080fd5b810190808051906020019092919050505050610c04565b5b5b50505050505050505050505050565b600060606000600460009054906101000a900473ffffffffffffffffffffffffffffffffffffffff1673ffffffffffffffffffffffffffffffffffffffff1663e226a1b6336040518263ffffffff167c0100000000000000000000000000000000000000000000000000000000028152600401808273ffffffffffffffffffffffffffffffffffffffff1673ffffffffffffffffffffffffffffffffffffffff168152602001915050602060405180830381600087803b158015610cd657600080fd5b505af1158015610cea573d6000803e3d6000fd5b505050506040513d6020811015610d0057600080fd5b81019080805190602001909291905050501515610d85576040517f08c379a000000000000000000000000000000000000000000000000000000000815260040180806020018281038252600d8152602001807f496e76616c696420566f7465720000000000000000000000000000000000000081525060200191505060405180910390fd5b600f600081548092919060010191905055506002600460009054906101000a900473ffffffffffffffffffffffffffffffffffffffff1673ffffffffffffffffffffffffffffffffffffffff1663602bb04f6040518163ffffffff167c0100000000000000000000000000000000000000000000000000000000028152600401602060405180830381600087803b158015610e1f57600080fd5b505af1158015610e33573d6000803e3d6000fd5b505050506040513d6020811015610e4957600080fd5b8101908080519060200190929190505050811515610e6357fe5b04600f5411156116b057600160009054906101000a900473ffffffffffffffffffffffffffffffffffffffff1673ffffffffffffffffffffffffffffffffffffffff1663bbee369430306040518363ffffffff167c0100000000000000000000000000000000000000000000000000000000028152600401808373ffffffffffffffffffffffffffffffffffffffff1673ffffffffffffffffffffffffffffffffffffffff1681526020018273ffffffffffffffffffffffffffffffffffffffff1673ffffffffffffffffffffffffffffffffffffffff168152602001807f4e6f6e70726f766964657273000000000000000000000000000000000000000081525060200192505050602060405180830381600087803b158015610f8657600080fd5b505af1158015610f9a573d6000803e3d6000fd5b505050506040513d6020811015610fb057600080fd5b8101908080519060200190929190505050925060008311151561103b576040517f08c379a000000000000000000000000000000000000000000000000000000000815260040180806020018281038252600d8152602001807f4e6f20646f747320626f756e640000000000000000000000000000000000000081525060200191505060405180910390fd5b600160009054906101000a900473ffffffffffffffffffffffffffffffffffffffff1673ffffffffffffffffffffffffffffffffffffffff1663a06fe77530856040518363ffffffff167c0100000000000000000000000000000000000000000000000000000000028152600401808373ffffffffffffffffffffffffffffffffffffffff1673ffffffffffffffffffffffffffffffffffffffff168152602001807f4e6f6e70726f766964657273000000000000000000000000000000000000000081525060200182815260200192505050602060405180830381600087803b15801561112857600080fd5b505af115801561113c573d6000803e3d6000fd5b505050506040513d602081101561115257600080fd5b810190808051906020019092919050505050600460009054906101000a900473ffffffffffffffffffffffffffffffffffffffff1673ffffffffffffffffffffffffffffffffffffffff1663602bb04f6040518163ffffffff167c0100000000000000000000000000000000000000000000000000000000028152600401602060405180830381600087803b1580156111ea57600080fd5b505af11580156111fe573d6000803e3d6000fd5b505050506040513d602081101561121457600080fd5b8101908080519060200190929190505050600360009054906101000a900473ffffffffffffffffffffffffffffffffffffffff1673ffffffffffffffffffffffffffffffffffffffff166370a08231306040518263ffffffff167c0100000000000000000000000000000000000000000000000000000000028152600401808273ffffffffffffffffffffffffffffffffffffffff1673ffffffffffffffffffffffffffffffffffffffff168152602001915050602060405180830381600087803b1580156112e257600080fd5b505af11580156112f6573d6000803e3d6000fd5b505050506040513d602081101561130c57600080fd5b810190808051906020019092919050505081151561132657fe5b049250600460009054906101000a900473ffffffffffffffffffffffffffffffffffffffff1673ffffffffffffffffffffffffffffffffffffffff166312faae936040518163ffffffff167c0100000000000000000000000000000000000000000000000000000000028152600401600060405180830381600087803b1580156113af57600080fd5b505af11580156113c3573d6000803e3d6000fd5b505050506040513d6000823e3d601f19601f8201168201806040525060208110156113ed57600080fd5b81019080805164010000000081111561140557600080fd5b8281019050602081018481111561141b57600080fd5b815185602082028301116401000000008211171561143857600080fd5b50509291905050509150600090505b600460009054906101000a900473ffffffffffffffffffffffffffffffffffffffff1673ffffffffffffffffffffffffffffffffffffffff1663602bb04f6040518163ffffffff167c0100000000000000000000000000000000000000000000000000000000028152600401602060405180830381600087803b1580156114cd57600080fd5b505af11580156114e1573d6000803e3d6000fd5b505050506040513d60208110156114f757600080fd5b81019080805190602001909291905050508110156116a757600360009054906101000a900473ffffffffffffffffffffffffffffffffffffffff1673ffffffffffffffffffffffffffffffffffffffff1663a9059cbb838381518110151561155b57fe5b90602001906020020151856040518363ffffffff167c0100000000000000000000000000000000000000000000000000000000028152600401808373ffffffffffffffffffffffffffffffffffffffff1673ffffffffffffffffffffffffffffffffffffffff16815260200182815260200192505050602060405180830381600087803b1580156115eb57600080fd5b505af11580156115ff573d6000803e3d6000fd5b505050506040513d602081101561161557600080fd5b8101908080519060200190929190505050151561169a576040517f08c379a00000000000000000000000000000000000000000000000000000000081526004018080602001828103825260178152602001807f4661696c656420746f205472616e66657220546f6b656e00000000000000000081525060200191505060405180910390fd5b8080600101915050611447565b6000600f819055505b505050565b600b5481565b600960009054906101000a900473ffffffffffffffffffffffffffffffffffffffff1681565b600460009054906101000a900473ffffffffffffffffffffffffffffffffffffffff1673ffffffffffffffffffffffffffffffffffffffff1663664c0bf9826040518263ffffffff167c01000000000000000000000000000000000000000000000000000000000281526004018080602001828103825283818151815260200191508051906020019060200280838360005b8381101561178e578082015181840152602081019050611773565b5050505090500192505050600060405180830381600087803b1580156117b357600080fd5b505af11580156117c7573d6000803e3d6000fd5b5050505050565b6000806000807f3029607cc6a3c9da1151808d70477d5629884ae9cf28dace18a0043d89460cf88a8a8a8a8a3360405180806020018660001916600019168152602001806020018473ffffffffffffffffffffffffffffffffffffffff1673ffffffffffffffffffffffffffffffffffffffff16815260200183810383528989828181526020019250808284378201915050838103825286868281815260200192506020028082843782019150509850505050505050505060405180910390a1600560009054906101000a900473ffffffffffffffffffffffffffffffffffffffff1673ffffffffffffffffffffffffffffffffffffffff163373ffffffffffffffffffffffffffffffffffffffff161480156119b657506000600460009054906101000a900473ffffffffffffffffffffffffffffffffffffffff1673ffffffffffffffffffffffffffffffffffffffff16636f07abcc8d6040518263ffffffff167c010000000000000000000000000000000000000000000000000000000002815260040180828152602001915050602060405180830381600087803b15801561197957600080fd5b505af115801561198d573d6000803e3d6000fd5b505050506040513d60208110156119a357600080fd5b8101908080519060200190929190505050145b1515611a2a576040517f08c379a000000000000000000000000000000000000000000000000000000000815260040180806020018281038252600d8152602001807f4469737061746368206f6e6c790000000000000000000000000000000000000081525060200191505060405180910390fd5b876040516020018082600019166000191681526020019150506040516020818303038152906040526040518082805190602001908083835b602083101515611a875780518252602082019150602081019050602083039250611a62565b6001836020036101000a03801982511681845116808217855250505050505090500191505060405180910390209350868660028181101515611ac557fe5b9050602002013560001916600190049250600083118015611ba65750600460009054906101000a900473ffffffffffffffffffffffffffffffffffffffff1673ffffffffffffffffffffffffffffffffffffffff1663602bb04f6040518163ffffffff167c0100000000000000000000000000000000000000000000000000000000028152600401602060405180830381600087803b158015611b6757600080fd5b505af1158015611b7b573d6000803e3d6000fd5b505050506040513d6020811015611b9157600080fd5b81019080805190602001909291905050508311155b1515611c1a576040517f08c379a00000000000000000000000000000000000000000000000000000000081526004018080602001828103825260188152602001807f496e76616c6964205468726573686f6c64204c656e677468000000000000000081525060200191505060405180910390fd5b600460009054906101000a900473ffffffffffffffffffffffffffffffffffffffff1673ffffffffffffffffffffffffffffffffffffffff1663b9c362098c856040518363ffffffff167c01000000000000000000000000000000000000000000000000000000000281526004018083815260200182815260200192505050600060405180830381600087803b158015611cb357600080fd5b505af1158015611cc7573d6000803e3d6000fd5b50505050600b546040516020018082600019166000191681526020019150506040516020818303038152906040526040518082805190602001908083835b602083101515611d2a5780518252602082019150602081019050602083039250611d05565b6001836020036101000a0380198251168184511680821785525050505050509050019150506040518091039020600019168460001916141561233f57600460009054906101000a900473ffffffffffffffffffffffffffffffffffffffff1673ffffffffffffffffffffffffffffffffffffffff166381f668448c60016040518363ffffffff167c01000000000000000000000000000000000000000000000000000000000281526004018083815260200182815260200192505050600060405180830381600087803b158015611e0057600080fd5b505af1158015611e14573d6000803e3d6000fd5b50505050600090505b600460009054906101000a900473ffffffffffffffffffffffffffffffffffffffff1673ffffffffffffffffffffffffffffffffffffffff1663602bb04f6040518163ffffffff167c0100000000000000000000000000000000000000000000000000000000028152600401602060405180830381600087803b158015611ea357600080fd5b505af1158015611eb7573d6000803e3d6000fd5b505050506040513d6020811015611ecd57600080fd5b810190808051906020019092919050505081101561233e5743428b8b8e600460009054906101000a900473ffffffffffffffffffffffffffffffffffffffff1673ffffffffffffffffffffffffffffffffffffffff16634155b850876040518263ffffffff167c010000000000000000000000000000000000000000000000000000000002815260040180828152602001915050602060405180830381600087803b158015611f7b57600080fd5b505af1158015611f8f573d6000803e3d6000fd5b505050506040513d6020811015611fa557600080fd5b81019080805190602001909291905050506040516020018087815260200186815260200185858082843782019150508381526020018273ffffffffffffffffffffffffffffffffffffffff1673ffffffffffffffffffffffffffffffffffffffff166c0100000000000000000000000002815260140196505050505050506040516020818303038152906040526040518082805190602001908083835b6020831015156120675780518252602082019150602081019050602083039250612042565b6001836020036101000a0380198251168184511680821785525050505050509050019150506040518091039020600190049150600460009054906101000a900473ffffffffffffffffffffffffffffffffffffffff1673ffffffffffffffffffffffffffffffffffffffff16638be8f272838d6040518363ffffffff167c01000000000000000000000000000000000000000000000000000000000281526004018083815260200182815260200192505050600060405180830381600087803b15801561213357600080fd5b505af1158015612147573d6000803e3d6000fd5b505050507f69741cc3ec0270f258feb6b53b42ef1e7d2251a3c8eea4f6ba1f72bd4b7beba782600460009054906101000a900473ffffffffffffffffffffffffffffffffffffffff1673ffffffffffffffffffffffffffffffffffffffff16634155b850846040518263ffffffff167c010000000000000000000000000000000000000000000000000000000002815260040180828152602001915050602060405180830381600087803b1580156121fe57600080fd5b505af1158015612212573d6000803e3d6000fd5b505050506040513d602081101561222857600080fd5b8101908080519060200190929190505050308d8d8c8c6001604051808981526020018873ffffffffffffffffffffffffffffffffffffffff1673ffffffffffffffffffffffffffffffffffffffff1681526020018773ffffffffffffffffffffffffffffffffffffffff1673ffffffffffffffffffffffffffffffffffffffff16815260200180602001807f48656c6c6f3f0000000000000000000000000000000000000000000000000000815250602001806020018415151515815260200183810383528888828181526020019250808284378201915050838103825286868281815260200192506020028082843782019150509a505050505050505050505060405180910390a18080600101915050611e1d565b5b50505050505050505050505600a165627a7a72305820f1abfd690c391512a1d76a224559b4e7243ebe019ffd666e6ece7f032de928520029",
  "source": "pragma solidity ^0.4.24;\n\nimport \"./MPOStorage.sol\";\nimport \"./lib/Destructible.sol\";\nimport \"./lib/ZapInterface.sol\";\n// import \"./ECRecovery.sol\";\n// @title - A MultiPartyOracle contract that implements the client1 callback\n// @authors - Max Inciong, Jonathan Pang, Jon Morales\n// @notice the contract receives queries from dispatch and queries multiple providers to resolve the query\n\ncontract MultiPartyOracle {\n    event RecievedQuery(string query, bytes32 endpoint, bytes32[] params, address sender);\n    event ReceivedResponse(uint256 queryId, address responder, string response);\n    event Incoming(\n        uint256 id,\n        address provider,\n        address subscriber,\n        string query,\n        bytes32 endpoint,\n        bytes32[] endpointParams,\n        bool onchainSubscriber\n    );\n\n    event Result1(uint256 id, string response1);\n\n    ZapInterface dispatch;\n    ZapInterface bondage;\n    ZapInterface registry;\n    ZapInterface ztoken;\n    MPOStorage stor;\n    \n    //move dispatch address to storage\n    address dispatchAddress;\n    address bondageAddress;\n    address registryAddress;\n    address ztokenAddress;\n    address public storageAddress;\n    address aggregator; \n\n    bytes32 public spec3 = \"Nonproviders\";\n    int256[] curve3 = [1,1,1000000000];\n    // @notice constructor that sets up zap registry, dispatch, and MPO storage. Also sets up registry provider curve\n    // @param address registryAddress\n    // @param address _dispatchAddress\n    // @param address mpoStorageAddress\n    constructor(address _zapCoord, address mpoStorageAddress, address _aggregator) public{\n        // require(_responders.length<=stor.getNumResponders(), \"Soft Cap reached\");\n        registryAddress = ZapInterface(_zapCoord).getContract(\"REGISTRY\");\n        registry = ZapInterface(registryAddress);\n        dispatchAddress = ZapInterface(_zapCoord).getContract(\"DISPATCH\");\n        dispatch = ZapInterface(dispatchAddress);\n        bondageAddress = ZapInterface(_zapCoord).getContract(\"BONDAGE\");\n        bondage = ZapInterface(bondageAddress);\n        ztokenAddress = ZapInterface(_zapCoord).getContract(\"ZAP_TOKEN\");\n        ztoken = ZapInterface(ztokenAddress);\n        stor = MPOStorage(mpoStorageAddress);\n        aggregator = _aggregator;\n        bytes32 title = \"MultiPartyOracle\";\n        registry.initiateProvider(12345, title);\n        registry.initiateProviderCurve(spec3, curve3, address(0));\n\n    }\n    function setup(address[] _responders) public{\n        stor.setResponders(_responders);\n    }\n    \n    // middleware function for handling queries\n    // @notice recieves query, called from dispatch\n    // @param uint256 id Dispatch created query ID\n    // @param string userQuery User provided query String\n    // @param bytes32 endpoint Determines whether to use Onchain Providers, Offchain Providers, Non-Providers\n    // @param bytes32[] endpointParams Parameters passed to providers\n    // @param bool onchainSubscriber Unused boolean that determines if subscriber is a smart contract\n    function receive(uint256 id, string userQuery, bytes32 endpoint, bytes32[] endpointParams, bool onchainSubscriber) external {\n        emit RecievedQuery(userQuery, endpoint, endpointParams, msg.sender);\n        require(msg.sender == dispatchAddress && stor.getQueryStatus(id) == 0, \"Dispatch only\");\n        // endpoint params [from, to, threshold, precision, delta]\n        bytes32 hash = keccak256(abi.encodePacked(endpoint));\n        uint256 threshold = uint(endpointParams[2]);\n        require(threshold > 0 && threshold <= stor.getNumResponders(),\"Invalid Threshold Length\");\n        stor.setThreshold(id, threshold );\n        \n        if(hash == keccak256(abi.encodePacked(spec3))) {\n            stor.setQueryStatus(id,1);\n            uint256 mpoid;\n            for(uint i=0; i<stor.getNumResponders(); i++) {      \n                mpoid=uint256(keccak256(abi.encodePacked(\n                                block.number, now, userQuery,id,stor.getResponderAddress(i)\n                                )));\n                stor.setClientQueryId(mpoid, id);\n                emit Incoming(mpoid, stor.getResponderAddress(i),this, userQuery, \"Hello?\", endpointParams, true);\n                \n            }\n        }\n    }\n\n    // @notice callback used by dispatch or nonproviders once a response has been created for the query\n    // @param queryId MPO or dispatch generated MPOID to used to determine client query ID\n    // @param response Response to be returned to client\n    // @param msgHash, sigv, sigr, sigs to be used in ecrecover\n    // @dev \n    uint numTrue = 0;\n    uint numFalse = 0;\n    function callback(uint256 mpoId, uint256[] responses, bytes32[] msgHash, uint8[] sigv, bytes32[] sigrs) external {\n        require(msg.sender == aggregator, \"Invalid aggregator\");\n        \n        uint256 queryId = stor.getClientQueryId(mpoId);\n        address sender;\n        \n        for(uint i=0;i<msgHash.length;i++){\n            sender = ecrecover(msgHash[i],sigv[i],sigrs[2*i],sigrs[2*i+1]);\n            // If address is in whitelist\n            if( stor.getAddressStatus(sender) ){\n                    if(responses[i]!=0){\n                        numTrue++;\n                    }\n                    else{\n                        numFalse++;\n                    }\n                    \n                }\n        }\n        \n        // Query status 0 = not started, 1 = in progress, 2 = complete\n        if(stor.getQueryStatus(queryId) == 1) {\n            // If enough answers meet the threshold send back the average of the answers\n            int256[] memory response=new int256[](1);\n            if(numTrue>numFalse && numTrue >= stor.getThreshold(queryId)){                \n                stor.setQueryStatus(queryId, 2);\n                response[0]=1;\n                return;\n            }\n            if(numFalse>numTrue && numFalse >= stor.getThreshold(queryId)){\n                stor.setQueryStatus(queryId, 2);\n                response[0]=0;\n                dispatch.respondIntArray(queryId, response);\n                return;\n            }\n        }\n        \n\n    }\n    uint payoutTally = 0;\n    function payout() external {\n        require(stor.getAddressStatus(msg.sender), \"Invalid Voter\");\n        payoutTally++;\n        \n        if(payoutTally > stor.getNumResponders()/2){\n            uint payout = bondage.getBoundDots(address(this),address(this),\"Nonproviders\");\n            require(payout>0, \"No dots bound\");\n            bondage.unbond(address(this),\"Nonproviders\",payout);\n            payout = ztoken.balanceOf(address(this))/stor.getNumResponders();\n            address[] memory payArr = stor.getResponders();\n            for(uint i=0; i<stor.getNumResponders(); i++) {\n                require(ztoken.transfer(payArr[i],payout), \"Failed to Tranfer Token\");\n            }\n            payoutTally=0;\n        }\n        \n        \n\n    }\n\n  }\n    \n\n",
  "sourcePath": "/home/user/multiparty-oracle/contracts/MultiPartyOracle.sol",
  "compiler": {
    "name": "solc",
    "version": "0.4.24+commit.e67f0147.Emscripten.clang"
  },
  "schemaVersion": "3.0.9",
  "updatedAt": "2019-05-20T11:25:45.254Z",
  "devdoc": {
    "methods": {}
  },
  "userdoc": {
    "methods": {}
  }
}